{
  "abi": [
    {
      "inputs": [],
      "name": "EVM_EXTRA_ARGS_V1_TAG",
      "outputs": [
        {
          "internalType": "bytes4",
          "name": "",
          "type": "bytes4"
        }
      ],
      "stateMutability": "view",
      "type": "function"
    },
    {
      "inputs": [],
      "name": "GENERIC_EXTRA_ARGS_V2_TAG",
      "outputs": [
        {
          "internalType": "bytes4",
          "name": "",
          "type": "bytes4"
        }
      ],
      "stateMutability": "view",
      "type": "function"
    },
    {
      "inputs": [],
      "name": "SUI_ACCOUNT_BYTE_SIZE",
      "outputs": [
        {
          "internalType": "uint256",
          "name": "",
          "type": "uint256"
        }
      ],
      "stateMutability": "view",
      "type": "function"
    },
    {
      "inputs": [],
      "name": "SUI_EXTRA_ARGS_MAX_RECEIVER_OBJECT_IDS",
      "outputs": [
        {
          "internalType": "uint256",
          "name": "",
          "type": "uint256"
        }
      ],
      "stateMutability": "view",
      "type": "function"
    },
    {
      "inputs": [],
      "name": "SUI_EXTRA_ARGS_V1_TAG",
      "outputs": [
        {
          "internalType": "bytes4",
          "name": "",
          "type": "bytes4"
        }
      ],
      "stateMutability": "view",
      "type": "function"
    },
    {
      "inputs": [],
      "name": "SUI_MESSAGING_ACCOUNTS_OVERHEAD",
      "outputs": [
        {
          "internalType": "uint256",
          "name": "",
          "type": "uint256"
        }
      ],
      "stateMutability": "view",
      "type": "function"
    },
    {
      "inputs": [],
      "name": "SUI_TOKEN_TRANSFER_DATA_OVERHEAD",
      "outputs": [
        {
          "internalType": "uint256",
          "name": "",
          "type": "uint256"
        }
      ],
      "stateMutability": "view",
      "type": "function"
    },
    {
      "inputs": [],
      "name": "SVM_ACCOUNT_BYTE_SIZE",
      "outputs": [
        {
          "internalType": "uint256",
          "name": "",
          "type": "uint256"
        }
      ],
      "stateMutability": "view",
      "type": "function"
    },
    {
      "inputs": [],
      "name": "SVM_EXTRA_ARGS_MAX_ACCOUNTS",
      "outputs": [
        {
          "internalType": "uint256",
          "name": "",
          "type": "uint256"
        }
      ],
      "stateMutability": "view",
      "type": "function"
    },
    {
      "inputs": [],
      "name": "SVM_EXTRA_ARGS_V1_TAG",
      "outputs": [
        {
          "internalType": "bytes4",
          "name": "",
          "type": "bytes4"
        }
      ],
      "stateMutability": "view",
      "type": "function"
    },
    {
      "inputs": [],
      "name": "SVM_MESSAGING_ACCOUNTS_OVERHEAD",
      "outputs": [
        {
          "internalType": "uint256",
          "name": "",
          "type": "uint256"
        }
      ],
      "stateMutability": "view",
      "type": "function"
    },
    {
      "inputs": [],
      "name": "SVM_TOKEN_TRANSFER_DATA_OVERHEAD",
      "outputs": [
        {
          "internalType": "uint256",
          "name": "",
          "type": "uint256"
        }
      ],
      "stateMutability": "view",
      "type": "function"
    }
  ],
  "evm": {
    "bytecode": {
      "linkReferences": {},
      "object": "61018b610034600b8282823980515f1a607314602857634e487b7160e01b5f525f60045260245ffd5b305f52607381538281f3fe73000000000000000000000000000000000000000030146080604052600436106100bc575f3560e01c80639713cbbd116100795780639713cbbd1461012e578063a5dd87d814610137578063b5f958fc14610145578063bd62fad91461010a578063f736d63a1461014d578063fe489112146100c0575f5ffd5b80631ac428f8146100c05780633ab8c0d0146100db5780635dd8ee3e1461010257806371953f601461010a5780637498e3551461011257806390c21ba614610120575b5f5ffd5b6100c8604081565b6040519081526020015b60405180910390f35b6100e96397a657c960e01b81565b6040516001600160e01b031990911681526020016100d2565b6100c8600281565b6100c8602081565b6100e9630181dcf160e41b81565b6100e96321ea4ca960e01b81565b6100c861012c81565b6100e9630f9d9d5d60e11b81565b6100c8600181565b6100c8606c8156fea26469706673582212202b5647ac458b9a23bc3b8255916f8f60e4c8b769d83755c224e8bbe8519a430264736f6c63430008210033",
      "opcodes": "PUSH2 0x18B PUSH2 0x34 PUSH1 0xB DUP3 DUP3 DUP3 CODECOPY DUP1 MLOAD PUSH0 BYTE PUSH1 0x73 EQ PUSH1 0x28 JUMPI PUSH4 0x4E487B71 PUSH1 0xE0 SHL PUSH0 MSTORE PUSH0 PUSH1 0x4 MSTORE PUSH1 0x24 PUSH0 REVERT JUMPDEST ADDRESS PUSH0 MSTORE PUSH1 0x73 DUP2 MSTORE8 DUP3 DUP2 RETURN INVALID PUSH20 0x0 ADDRESS EQ PUSH1 0x80 PUSH1 0x40 MSTORE PUSH1 0x4 CALLDATASIZE LT PUSH2 0xBC JUMPI PUSH0 CALLDATALOAD PUSH1 0xE0 SHR DUP1 PUSH4 0x9713CBBD GT PUSH2 0x79 JUMPI DUP1 PUSH4 0x9713CBBD EQ PUSH2 0x12E JUMPI DUP1 PUSH4 0xA5DD87D8 EQ PUSH2 0x137 JUMPI DUP1 PUSH4 0xB5F958FC EQ PUSH2 0x145 JUMPI DUP1 PUSH4 0xBD62FAD9 EQ PUSH2 0x10A JUMPI DUP1 PUSH4 0xF736D63A EQ PUSH2 0x14D JUMPI DUP1 PUSH4 0xFE489112 EQ PUSH2 0xC0 JUMPI PUSH0 PUSH0 REVERT JUMPDEST DUP1 PUSH4 0x1AC428F8 EQ PUSH2 0xC0 JUMPI DUP1 PUSH4 0x3AB8C0D0 EQ PUSH2 0xDB JUMPI DUP1 PUSH4 0x5DD8EE3E EQ PUSH2 0x102 JUMPI DUP1 PUSH4 0x71953F60 EQ PUSH2 0x10A JUMPI DUP1 PUSH4 0x7498E355 EQ PUSH2 0x112 JUMPI DUP1 PUSH4 0x90C21BA6 EQ PUSH2 0x120 JUMPI JUMPDEST PUSH0 PUSH0 REVERT JUMPDEST PUSH2 0xC8 PUSH1 0x40 DUP2 JUMP JUMPDEST PUSH1 0x40 MLOAD SWAP1 DUP2 MSTORE PUSH1 0x20 ADD JUMPDEST PUSH1 0x40 MLOAD DUP1 SWAP2 SUB SWAP1 RETURN JUMPDEST PUSH2 0xE9 PUSH4 0x97A657C9 PUSH1 0xE0 SHL DUP2 JUMP JUMPDEST PUSH1 0x40 MLOAD PUSH1 0x1 PUSH1 0x1 PUSH1 0xE0 SHL SUB NOT SWAP1 SWAP2 AND DUP2 MSTORE PUSH1 0x20 ADD PUSH2 0xD2 JUMP JUMPDEST PUSH2 0xC8 PUSH1 0x2 DUP2 JUMP JUMPDEST PUSH2 0xC8 PUSH1 0x20 DUP2 JUMP JUMPDEST PUSH2 0xE9 PUSH4 0x181DCF1 PUSH1 0xE4 SHL DUP2 JUMP JUMPDEST PUSH2 0xE9 PUSH4 0x21EA4CA9 PUSH1 0xE0 SHL DUP2 JUMP JUMPDEST PUSH2 0xC8 PUSH2 0x12C DUP2 JUMP JUMPDEST PUSH2 0xE9 PUSH4 0xF9D9D5D PUSH1 0xE1 SHL DUP2 JUMP JUMPDEST PUSH2 0xC8 PUSH1 0x1 DUP2 JUMP JUMPDEST PUSH2 0xC8 PUSH1 0x6C DUP2 JUMP INVALID LOG2 PUSH5 0x6970667358 0x22 SLT KECCAK256 0x2B JUMP SELFBALANCE 0xAC GASLIMIT DUP12 SWAP11 0x23 0xBC EXTCODESIZE DUP3 SSTORE SWAP2 PUSH16 0x8F60E4C8B769D83755C224E8BBE8519A NUMBER MUL PUSH5 0x736F6C6343 STOP ADDMOD 0x21 STOP CALLER "
    }
  }
}